{"abi":[{"type":"constructor","inputs":[{"name":"registry_","type":"address","internalType":"address"},{"name":"primaryValueSale_","type":"address","internalType":"address"}],"stateMutability":"nonpayable"},{"type":"function","name":"createValueToken","inputs":[{"name":"propertyId","type":"uint256","internalType":"uint256"},{"name":"initialHolder","type":"address","internalType":"address"},{"name":"initialSupply","type":"uint256","internalType":"uint256"}],"outputs":[{"name":"valueToken","type":"address","internalType":"address"}],"stateMutability":"nonpayable"},{"type":"function","name":"primaryValueSale","inputs":[],"outputs":[{"name":"","type":"address","internalType":"address"}],"stateMutability":"view"},{"type":"function","name":"registry","inputs":[],"outputs":[{"name":"","type":"address","internalType":"address"}],"stateMutability":"view"},{"type":"function","name":"valueTokenByPropertyId","inputs":[{"name":"","type":"uint256","internalType":"uint256"}],"outputs":[{"name":"","type":"address","internalType":"address"}],"stateMutability":"view"},{"type":"event","name":"PropertyValueTokenCreated","inputs":[{"name":"propertyId","type":"uint256","indexed":true,"internalType":"uint256"},{"name":"valueToken","type":"address","indexed":true,"internalType":"address"},{"name":"initialHolder","type":"address","indexed":true,"internalType":"address"},{"name":"initialSupply","type":"uint256","indexed":false,"internalType":"uint256"},{"name":"authorizedOperator","type":"address","indexed":false,"internalType":"address"}],"anonymous":false},{"type":"error","name":"TokenAlreadyCreated","inputs":[]},{"type":"error","name":"Unauthorized","inputs":[]},{"type":"error","name":"ZeroAddress","inputs":[]}],"bytecode":{"object":"0x60c0346100bc57601f610f1b38819003918201601f19168301916001600160401b038311848410176100c05780849260409485528339810103126100bc57610052602061004b836100d4565b92016100d4565b906001600160a01b0381161580156100ab575b61009c5760805260a052604051610e3290816100e982396080518181816092015260f0015260a05181818161017901526102c10152f35b63d92e233d60e01b5f5260045ffd5b506001600160a01b03821615610065565b5f80fd5b634e487b7160e01b5f52604160045260245ffd5b51906001600160a01b03821682036100bc5756fe6080806040526004361015610012575f80fd5b5f3560e01c908163560844e9146102af57508063576bcc6c146100c15780637b1039991461007d5763b75fe19314610048575f80fd5b34610079576020366003190112610079576004355f525f602052602060018060a01b0360405f205416604051908152f35b5f80fd5b34610079575f366003190112610079576040517f00000000000000000000000000000000000000000000000000000000000000006001600160a01b03168152602090f35b34610079576060366003190112610079576004356024356001600160a01b0381169081900361007957604435907f00000000000000000000000000000000000000000000000000000000000000006001600160a01b0316338190036102a1578115610292575f848152602081905260409020546001600160a01b031661028357604051610b0c918282019282841067ffffffffffffffff85111761026f576102f1833985835260208301526101608160018060a01b037f0000000000000000000000000000000000000000000000000000000000000000169384604082015285606082015286608082015260e060a0820152601460e082015273283937b832b93a3c902b30b63ab2902a37b5b2b760611b61010082015261012060c082015260036101208201526214159560ea1b6101408201520301905ff0938415610264577f6e6f5aa706f30fb18156b29a216df782701e5c0a626c0c079d5b7cd3c6ad3f27604060209660018060a01b0316958694845f525f8952825f20866bffffffffffffffffffffffff60a01b825416179055825191825288820152a4604051908152f35b6040513d5f823e3d90fd5b634e487b7160e01b5f52604160045260245ffd5b636493366360e01b5f5260045ffd5b63d92e233d60e01b5f5260045ffd5b6282b42960e81b5f5260045ffd5b34610079575f366003190112610079577f00000000000000000000000000000000000000000000000000000000000000006001600160a01b03168152602090f3fe60e06040523461040657610b0c803803806100198161040a565b92833981019060e0818303126104065780516100376020830161042f565b906100446040840161042f565b6100506060850161042f565b9260808501519460a081015160018060401b0381116104065787610075918301610443565b60c08201519097906001600160401b038111610406576100959201610443565b926001600160a01b0382161580156103f5575b80156103e4575b6103d55760805260a05260c05283516001600160401b0381116102e9575f54600181811c911680156103cb575b60208210146102cb57601f8111610369575b50602094601f8211600114610308579481929394955f926102fd575b50508160011b915f199060031b1c1916175f555b8051906001600160401b0382116102e957600154600181811c911680156102df575b60208210146102cb57601f8111610268575b50602090601f83116001146101f15792825f516020610aec5f395f51905f52936020935f9687926101e6575b50508160011b9186199060031b1c1916176001555b60028590556001600160a01b03168084526003825260408085208690555194855293a3604051610657908161049582396080518160bf015260a051816102b3015260c05181818161015101526103820152f35b015190505f8061017e565b90601f1983169160015f52815f20925f5b8181106102505750936020935f9693600193835f516020610aec5f395f51905f529810610238575b505050811b01600155610193565b0151871960f88460031b161c191690555f808061022a565b92936020600181928786015181550195019301610202565b60015f527fb10e2d527612073b26eecdfd717e6a320cf44b4afac2b0732d9fcbe2b7fa0cf6601f840160051c810191602085106102c1575b601f0160051c01905b8181106102b65750610152565b5f81556001016102a9565b90915081906102a0565b634e487b7160e01b5f52602260045260245ffd5b90607f1690610140565b634e487b7160e01b5f52604160045260245ffd5b015190505f8061010a565b601f198216955f8052805f20915f5b88811061035157508360019596979810610339575b505050811b015f5561011e565b01515f1960f88460031b161c191690555f808061032c565b91926020600181928685015181550194019201610317565b5f80527f290decd9548b62a8d60345a988386fc84ba6bc95484008f6362f93160ef3e563601f830160051c810191602084106103c1575b601f0160051c01905b8181106103b657506100ee565b5f81556001016103a9565b90915081906103a0565b90607f16906100dc565b63d92e233d60e01b5f5260045ffd5b506001600160a01b038516156100af565b506001600160a01b038316156100a8565b5f80fd5b6040519190601f01601f191682016001600160401b038111838210176102e957604052565b51906001600160a01b038216820361040657565b81601f82011215610406578051906001600160401b0382116102e957610472601f8301601f191660200161040a565b928284526020838301011161040657815f9260208093018386015e830101529056fe60806040526004361015610011575f80fd5b5f3560e01c806306fdde03146104bf578063095ea7b3146104965780630d1af1031461037157806318160ddd1461035457806323b872dd14610334578063313ce5671461031a57806370a08231146102e25780637b1039991461029e57806395d89b411461018057806396ea6ebe1461013c578063a9059cbb14610113578063dd62ed3e146100e65763ee7a3b8e146100a8575f80fd5b346100e2575f3660031901126100e25760206040517f00000000000000000000000000000000000000000000000000000000000000008152f35b5f80fd5b346100e25760403660031901126100e2576100ff6105bb565b506101086105d1565b5060206040515f8152f35b346100e25760403660031901126100e25761012c6105bb565b50638574adcf60e01b5f5260045ffd5b346100e2575f3660031901126100e2576040517f00000000000000000000000000000000000000000000000000000000000000006001600160a01b03168152602090f35b346100e2575f3660031901126100e2576040515f6001548060011c90600181168015610294575b60208310811461028057828552908115610264575060011461020e575b50819003601f01601f191681019067ffffffffffffffff8211818310176101fa57604082905281906101f69082610591565b0390f35b634e487b7160e01b5f52604160045260245ffd5b60015f9081529091507fb10e2d527612073b26eecdfd717e6a320cf44b4afac2b0732d9fcbe2b7fa0cf65b82821061024e575060209150820101826101c4565b6001816020925483858801015201910190610239565b90506020925060ff191682840152151560051b820101826101c4565b634e487b7160e01b5f52602260045260245ffd5b91607f16916101a7565b346100e2575f3660031901126100e2576040517f00000000000000000000000000000000000000000000000000000000000000006001600160a01b03168152602090f35b346100e25760203660031901126100e2576001600160a01b036103036105bb565b165f526003602052602060405f2054604051908152f35b346100e2575f3660031901126100e25760206040515f8152f35b346100e257610342366105e7565b505050638574adcf60e01b5f5260045ffd5b346100e2575f3660031901126100e2576020600254604051908152f35b346100e25761037f366105e7565b917f00000000000000000000000000000000000000000000000000000000000000006001600160a01b03163303610488576001600160a01b03169081158015610477575b61046857815f52600360205260405f2054838110610459578390835f5260036020520360405f205560018060a01b031691825f52600360205260405f20805491808301809311610445577fddf252ad1be2c89b69c2b068fc378daa952ba7f163c4a11628f55a4df523b3ef9260209255604051908152a3602060405160018152f35b634e487b7160e01b5f52601160045260245ffd5b631e9acf1760e31b5f5260045ffd5b63d92e233d60e01b5f5260045ffd5b506001600160a01b038116156103c3565b6282b42960e81b5f5260045ffd5b346100e25760403660031901126100e2576104af6105bb565b50638734687b60e01b5f5260045ffd5b346100e2575f3660031901126100e2576040515f5f548060011c90600181168015610587575b6020831081146102805782855290811561026457506001146105335750819003601f01601f191681019067ffffffffffffffff8211818310176101fa57604082905281906101f69082610591565b5f8080529091507f290decd9548b62a8d60345a988386fc84ba6bc95484008f6362f93160ef3e5635b828210610571575060209150820101826101c4565b600181602092548385880101520191019061055c565b91607f16916104e5565b602060409281835280519182918282860152018484015e5f828201840152601f01601f1916010190565b600435906001600160a01b03821682036100e257565b602435906001600160a01b03821682036100e257565b60609060031901126100e2576004356001600160a01b03811681036100e257906024356001600160a01b03811681036100e257906044359056fea26469706673582212203d953ab2793d36b9649c8c830a4c8f43ae02794f425d124613a82b6f6e131d8364736f6c634300081e0033ddf252ad1be2c89b69c2b068fc378daa952ba7f163c4a11628f55a4df523b3efa26469706673582212203fb23271c67cfd52d4cabe55fe0d90af375b56c6ec6868f6461803739b6c7a2064736f6c634300081e0033","linkReferences":{}},"methodIdentifiers":{"createValueToken(uint256,address,uint256)":"576bcc6c","primaryValueSale()":"560844e9","registry()":"7b103999","valueTokenByPropertyId(uint256)":"b75fe193"},"id":3}