{"abi":[{"type":"constructor","inputs":[],"stateMutability":"nonpayable"},{"type":"function","name":"MOCK_VERIFIER_ROLE","inputs":[],"outputs":[{"name":"","type":"bytes32","internalType":"bytes32"}],"stateMutability":"view"},{"type":"function","name":"addParticipantFromSale","inputs":[{"name":"propertyId","type":"uint256","internalType":"uint256"},{"name":"participant","type":"address","internalType":"address"}],"outputs":[],"stateMutability":"nonpayable"},{"type":"function","name":"bpsDenominator","inputs":[],"outputs":[{"name":"","type":"uint16","internalType":"uint16"}],"stateMutability":"pure"},{"type":"function","name":"configureExternalContracts","inputs":[{"name":"usufructRightNft_","type":"address","internalType":"address"},{"name":"propertyValueTokenFactory_","type":"address","internalType":"address"},{"name":"primaryValueSale_","type":"address","internalType":"address"}],"outputs":[],"stateMutability":"nonpayable"},{"type":"function","name":"getParticipants","inputs":[{"name":"propertyId","type":"uint256","internalType":"uint256"}],"outputs":[{"name":"","type":"address[]","internalType":"address[]"}],"stateMutability":"view"},{"type":"function","name":"getPropertiesByOwner","inputs":[{"name":"ownerAddress","type":"address","internalType":"address"}],"outputs":[{"name":"","type":"uint256[]","internalType":"uint256[]"}],"stateMutability":"view"},{"type":"function","name":"grantRole","inputs":[{"name":"role","type":"bytes32","internalType":"bytes32"},{"name":"account","type":"address","internalType":"address"}],"outputs":[],"stateMutability":"nonpayable"},{"type":"function","name":"hasRole","inputs":[{"name":"role","type":"bytes32","internalType":"bytes32"},{"name":"account","type":"address","internalType":"address"}],"outputs":[{"name":"","type":"bool","internalType":"bool"}],"stateMutability":"view"},{"type":"function","name":"isParticipantForProperty","inputs":[{"name":"","type":"uint256","internalType":"uint256"},{"name":"","type":"address","internalType":"address"}],"outputs":[{"name":"","type":"bool","internalType":"bool"}],"stateMutability":"view"},{"type":"function","name":"mockVerifyProperty","inputs":[{"name":"propertyId","type":"uint256","internalType":"uint256"}],"outputs":[],"stateMutability":"nonpayable"},{"type":"function","name":"nextPropertyId","inputs":[],"outputs":[{"name":"","type":"uint256","internalType":"uint256"}],"stateMutability":"view"},{"type":"function","name":"owner","inputs":[],"outputs":[{"name":"","type":"address","internalType":"address"}],"stateMutability":"view"},{"type":"function","name":"primaryValueSale","inputs":[],"outputs":[{"name":"","type":"address","internalType":"address"}],"stateMutability":"view"},{"type":"function","name":"properties","inputs":[{"name":"","type":"uint256","internalType":"uint256"}],"outputs":[{"name":"propertyId","type":"uint256","internalType":"uint256"},{"name":"owner","type":"address","internalType":"address"},{"name":"marketValueWei","type":"uint256","internalType":"uint256"},{"name":"linkedValueBps","type":"uint16","internalType":"uint16"},{"name":"linkedValueUnits","type":"uint256","internalType":"uint256"},{"name":"freeValueUnits","type":"uint256","internalType":"uint256"},{"name":"metadataHash","type":"bytes32","internalType":"bytes32"},{"name":"locationHash","type":"bytes32","internalType":"bytes32"},{"name":"documentsHash","type":"bytes32","internalType":"bytes32"},{"name":"valueToken","type":"address","internalType":"address"},{"name":"status","type":"uint8","internalType":"enum ProtocolTypes.PropertyStatus"}],"stateMutability":"view"},{"type":"function","name":"propertyExists","inputs":[{"name":"","type":"uint256","internalType":"uint256"}],"outputs":[{"name":"","type":"bool","internalType":"bool"}],"stateMutability":"view"},{"type":"function","name":"propertyValueTokenFactory","inputs":[],"outputs":[{"name":"","type":"address","internalType":"address"}],"stateMutability":"view"},{"type":"function","name":"registerProperty","inputs":[{"name":"marketValueWei","type":"uint256","internalType":"uint256"},{"name":"linkedValueBps","type":"uint16","internalType":"uint16"},{"name":"metadataHash","type":"bytes32","internalType":"bytes32"},{"name":"documentsHash","type":"bytes32","internalType":"bytes32"},{"name":"locationHash","type":"bytes32","internalType":"bytes32"}],"outputs":[{"name":"propertyId","type":"uint256","internalType":"uint256"}],"stateMutability":"nonpayable"},{"type":"function","name":"revokeRole","inputs":[{"name":"role","type":"bytes32","internalType":"bytes32"},{"name":"account","type":"address","internalType":"address"}],"outputs":[],"stateMutability":"nonpayable"},{"type":"function","name":"syncPropertySaleStatus","inputs":[{"name":"propertyId","type":"uint256","internalType":"uint256"},{"name":"newStatus","type":"uint8","internalType":"enum ProtocolTypes.PropertyStatus"}],"outputs":[],"stateMutability":"nonpayable"},{"type":"function","name":"tokenizeProperty","inputs":[{"name":"propertyId","type":"uint256","internalType":"uint256"}],"outputs":[{"name":"valueToken","type":"address","internalType":"address"}],"stateMutability":"nonpayable"},{"type":"function","name":"totalValueUnits","inputs":[],"outputs":[{"name":"","type":"uint256","internalType":"uint256"}],"stateMutability":"pure"},{"type":"function","name":"transferOwnership","inputs":[{"name":"newOwner","type":"address","internalType":"address"}],"outputs":[],"stateMutability":"nonpayable"},{"type":"function","name":"usufructPositions","inputs":[{"name":"","type":"uint256","internalType":"uint256"}],"outputs":[{"name":"propertyId","type":"uint256","internalType":"uint256"},{"name":"tokenId","type":"uint256","internalType":"uint256"},{"name":"holder","type":"address","internalType":"address"},{"name":"linkedValueUnits","type":"uint256","internalType":"uint256"},{"name":"linkedValueBps","type":"uint16","internalType":"uint16"},{"name":"active","type":"bool","internalType":"bool"}],"stateMutability":"view"},{"type":"function","name":"usufructRightNft","inputs":[],"outputs":[{"name":"","type":"address","internalType":"address"}],"stateMutability":"view"},{"type":"event","name":"ExternalContractsConfigured","inputs":[{"name":"usufructRightNft","type":"address","indexed":false,"internalType":"address"},{"name":"propertyValueTokenFactory","type":"address","indexed":false,"internalType":"address"},{"name":"primaryValueSale","type":"address","indexed":false,"internalType":"address"}],"anonymous":false},{"type":"event","name":"OwnershipTransferred","inputs":[{"name":"previousOwner","type":"address","indexed":true,"internalType":"address"},{"name":"newOwner","type":"address","indexed":true,"internalType":"address"}],"anonymous":false},{"type":"event","name":"ParticipantAdded","inputs":[{"name":"propertyId","type":"uint256","indexed":true,"internalType":"uint256"},{"name":"participant","type":"address","indexed":true,"internalType":"address"}],"anonymous":false},{"type":"event","name":"PropertyMockVerified","inputs":[{"name":"propertyId","type":"uint256","indexed":true,"internalType":"uint256"},{"name":"verifier","type":"address","indexed":true,"internalType":"address"},{"name":"owner","type":"address","indexed":true,"internalType":"address"}],"anonymous":false},{"type":"event","name":"PropertyRegistered","inputs":[{"name":"propertyId","type":"uint256","indexed":true,"internalType":"uint256"},{"name":"owner","type":"address","indexed":true,"internalType":"address"},{"name":"marketValueWei","type":"uint256","indexed":false,"internalType":"uint256"},{"name":"linkedValueBps","type":"uint16","indexed":false,"internalType":"uint16"},{"name":"linkedValueUnits","type":"uint256","indexed":false,"internalType":"uint256"},{"name":"freeValueUnits","type":"uint256","indexed":false,"internalType":"uint256"},{"name":"metadataHash","type":"bytes32","indexed":false,"internalType":"bytes32"},{"name":"documentsHash","type":"bytes32","indexed":false,"internalType":"bytes32"},{"name":"locationHash","type":"bytes32","indexed":false,"internalType":"bytes32"},{"name":"status","type":"uint8","indexed":false,"internalType":"enum ProtocolTypes.PropertyStatus"}],"anonymous":false},{"type":"event","name":"PropertyStatusUpdated","inputs":[{"name":"propertyId","type":"uint256","indexed":true,"internalType":"uint256"},{"name":"previousStatus","type":"uint8","indexed":false,"internalType":"enum ProtocolTypes.PropertyStatus"},{"name":"newStatus","type":"uint8","indexed":false,"internalType":"enum ProtocolTypes.PropertyStatus"}],"anonymous":false},{"type":"event","name":"PropertyTokenized","inputs":[{"name":"propertyId","type":"uint256","indexed":true,"internalType":"uint256"},{"name":"owner","type":"address","indexed":true,"internalType":"address"},{"name":"tokenId","type":"uint256","indexed":true,"internalType":"uint256"},{"name":"linkedValueUnits","type":"uint256","indexed":false,"internalType":"uint256"},{"name":"freeValueUnits","type":"uint256","indexed":false,"internalType":"uint256"}],"anonymous":false},{"type":"event","name":"PropertyValueTokenCreated","inputs":[{"name":"propertyId","type":"uint256","indexed":true,"internalType":"uint256"},{"name":"valueToken","type":"address","indexed":true,"internalType":"address"},{"name":"owner","type":"address","indexed":true,"internalType":"address"},{"name":"freeValueUnits","type":"uint256","indexed":false,"internalType":"uint256"},{"name":"authorizedOperator","type":"address","indexed":false,"internalType":"address"}],"anonymous":false},{"type":"event","name":"RoleGranted","inputs":[{"name":"role","type":"bytes32","indexed":true,"internalType":"bytes32"},{"name":"account","type":"address","indexed":true,"internalType":"address"},{"name":"sender","type":"address","indexed":true,"internalType":"address"}],"anonymous":false},{"type":"event","name":"RoleRevoked","inputs":[{"name":"role","type":"bytes32","indexed":true,"internalType":"bytes32"},{"name":"account","type":"address","indexed":true,"internalType":"address"},{"name":"sender","type":"address","indexed":true,"internalType":"address"}],"anonymous":false},{"type":"error","name":"ExternalContractsNotConfigured","inputs":[]},{"type":"error","name":"InvalidDocumentsHash","inputs":[]},{"type":"error","name":"InvalidLinkedValueBps","inputs":[]},{"type":"error","name":"InvalidLocationHash","inputs":[]},{"type":"error","name":"InvalidMarketValueWei","inputs":[]},{"type":"error","name":"InvalidMetadataHash","inputs":[]},{"type":"error","name":"InvalidPropertyStatus","inputs":[]},{"type":"error","name":"PropertyNotFound","inputs":[]},{"type":"error","name":"Unauthorized","inputs":[]},{"type":"error","name":"ZeroAddress","inputs":[]}],"bytecode":{"object":"0x6080806040523460525760015f81815581546001600160a01b031916339081179092557f8be0079c531659141344cd1fd0a4f28419497f9722a3daafe3b4186f6b6457e08180a36114b090816100578239f35b5f80fdfe6080806040526004361015610012575f80fd5b5f905f3560e01c90816310973bd6146110c0575080632f2ff15d1461106957806339500f341461104d578063408bcfa21461101357806340e133cc14610d2c578063412041f114610cbc5780634a16473214610c8d578063560844e914610c6557806360954dc61461087e5780636cae2a59146108505780637178c01b146108065780638da5cb5b146107dd57806391d14854146107935780639fcb2748146106de578063a98a329d14610652578063bb56e3951461054e578063c126145314610525578063c1e3bd3e1461046c578063d547741f14610423578063e5517fa4146102af578063f2fde38b1461021b578063f60632a0146101fe578063f7b10808146101465763fc17fc6414610126575f80fd5b346101435780600319360112610143576020604051620f42408152f35b80fd5b50346101435760203660031901126101435760406101609160043581526006602052206101fc81549160018060a01b0360018201541690600281015461ffff600383015416600483015460058401549060068501549260078601549460096008880154970154976040519a8b5260208b015260408a01526060890152608088015260a087015260c086015260e085015261010084015260018060a01b03811661012084015260ff61014084019160a01c1661110f565bf35b503461014357806003193601126101435760206040516127108152f35b5034610143576020366003190112610143576102356110f9565b600154906001600160a01b03821690338290036102a1576001600160a01b0316918215610292576001600160a01b03191682176001557f8be0079c531659141344cd1fd0a4f28419497f9722a3daafe3b4186f6b6457e08380a380f35b63d92e233d60e01b8452600484fd5b6282b42960e81b8452600484fd5b503461014357602036600319011261014357600435808252600560205260ff60408320541615610414578082526006602052604082206009810160ff815460a01c1691600683101561040057600183036103f1576001019060018060a01b03825416331415806103ae575b6103a057805460ff60a01b1916600160a11b17905554604080517f8e57a2be23e1738ef2e62e23518544bbb8f12cba85d0f47a4154fd56ef2fbcbc9391929091610395918391906001600160a01b031633887f8073e6ad35dc5d6bcba8ee1f2e88f8226c7339724d44d32c6becf6e74cf9b8878b80a461110f565b60026020820152a280f35b6282b42960e81b8552600485fd5b507f4074ecda76a28dd7ef5b48efea2a9c3acf54cfb296f0bba9820a008f852cf8188552600b60209081526040808720335f908152925290205460ff161561031a565b63283918bd60e01b8552600485fd5b634e487b7160e01b85526021600452602485fd5b63bb20aabf60e01b8252600482fd5b50346101435760403660031901126101435761043d6110e3565b6001546001600160a01b0316330361045e5761045b906004356112b8565b80f35b6282b42960e81b8252600482fd5b5034610143576020366003190112610143576004358152600960205260408120604051908160208254918281520190819285526020852090855b81811061050657505050826104bc91038361111c565b604051928392602084019060208552518091526040840192915b8181106104e4575050500390f35b82516001600160a01b03168452859450602093840193909201916001016104d6565b82546001600160a01b03168452602090930192600192830192016104a6565b50346101435780600319360112610143576003546040516001600160a01b039091168152602090f35b5034610143576060366003190112610143576105686110f9565b6105706110e3565b906044356001600160a01b038116919082900361064e576001546001600160a01b031633036102a1576001600160a01b0316918215801561063d575b8015610635575b61029257916060917f7192d3143a8c21e4ef6c67e5b13e765d025d6a2cd6022a512630d9fd1d55705193826001600160601b0360a01b600254161760025560018060a01b0316806001600160601b0360a01b6003541617600355816001600160601b0360a01b600454161760045560405192835260208301526040820152a180f35b5081156105b3565b506001600160a01b038116156105ac565b8380fd5b50346101435760403660031901126101435760043561066f6110e3565b6004549091906001600160a01b031633036106d057808352600560205260ff604084205416156106c1576001600160a01b038216156106b2579061045b916113ba565b63d92e233d60e01b8352600483fd5b63bb20aabf60e01b8352600483fd5b6282b42960e81b8352600483fd5b5034610143576020366003190112610143576001600160a01b036107006110f9565b168152600860205260408120604051908160208254918281520190819285526020852090855b81811061077d575050508261073c91038361111c565b604051928392602084019060208552518091526040840192915b818110610764575050500390f35b8251845285945060209384019390920191600101610756565b8254845260209093019260019283019201610726565b50346101435760403660031901126101435760406107af6110e3565b916004358152600b602052209060018060a01b03165f52602052602060ff60405f2054166040519015158152f35b50346101435780600319360112610143576001546040516001600160a01b039091168152602090f35b50346101435760403660031901126101435760406108226110e3565b916004358152600a602052209060018060a01b03165f52602052602060ff60405f2054166040519015158152f35b503461014357604036600319011261014357602435600681101561087a5761045b9060043561118b565b5080fd5b5034610bec576020366003190112610bec57600435805f52600560205260ff60405f20541615610c5657805f52600660205260405f20906009820160ff815460a01c166006811015610c4257600203610c33576001830180546001600160a01b031633819003610c25576002546001600160a01b03169081158015610c12575b8015610bff575b610bf057813b15610bec575f916044839260405194859384926338f4d49360e21b845260048401528960248401525af18015610be157610bcc575b5060018060a01b03815416600485019081549061ffff600388015416916040519160c0830183811067ffffffffffffffff821117610bb857604090815288845260208085018a81528583019384526060860194855260808601968752600160a087018181528c8f5260078452848f209751885591519087015592516002860180546001600160a01b039283166001600160a01b03199091161790559351600380870191909155955160049586018054945162ff000090151560101b1661ffff90921662ffffff1990951694909417179092559354865460059a909a01805495516315daf31b60e21b81529485018a905299831660248501526044840194909452919492859160649183918c91165af1928315610bad578793610b64575b5083546001600160a81b031981166001600160a01b03808616918217600360a01b179096559154925496546040805198895260208981018390529991987f8e57a2be23e1738ef2e62e23518544bbb8f12cba85d0f47a4154fd56ef2fbcbc9791966001600160a01b03199490941690941760a01c60ff16949193911691908790839082907faf9b7bee287e027a35006396014f11248cb401ea32fc0dd8eadb4ef7b3244d52908990a460045485519889526001600160a01b039081168a8a01521696879087907f6e6f5aa706f30fb18156b29a216df782701e5c0a626c0c079d5b7cd3c6ad3f27908790a4610b548351809361110f565b50600386820152a2604051908152f35b9092506020813d602011610ba5575b81610b806020938361111c565b81010312610ba157516001600160a01b0381168103610ba157916040610a5d565b8680fd5b3d9150610b73565b6040513d89823e3d90fd5b634e487b7160e01b8b52604160045260248bfd5b610bd99195505f9061111c565b5f935f610940565b6040513d5f823e3d90fd5b5f80fd5b637acf385960e01b5f5260045ffd5b506004546001600160a01b031615610905565b506003546001600160a01b0316156108fe565b6282b42960e81b5f5260045ffd5b63283918bd60e01b5f5260045ffd5b634e487b7160e01b5f52602160045260245ffd5b63bb20aabf60e01b5f5260045ffd5b34610bec575f366003190112610bec576004546040516001600160a01b039091168152602090f35b34610bec576020366003190112610bec576004355f526005602052602060ff60405f2054166040519015158152f35b34610bec576020366003190112610bec576004355f52600760205260c060405f2060ff81549160018101549060018060a01b03600282015416600460038301549201549260405195865260208601526040850152606084015261ffff8116608084015260101c16151560a0820152f35b34610bec5760a0366003190112610bec576004356024359061ffff8216809203610bec576044359060843560643582156110045784158015610ff8575b610fe9578315610fda578015610fcb578115610fbc575f5493600185015f5585620f424002620f424081048703610fa857612710900480620f42400390620f42408211610fa85760405161016081019080821067ffffffffffffffff831117610f9457600989918b936040528281528789888c6020850197338952604086019182526060860190815261ffff60808701918b835260a08801938d855260c0890195865260e08901968752610100890197885261012089019b5f8d526101408a019b60018d525f52600660205260405f2099518a5560018060a01b0390511660018a019060018060a01b03166001600160601b0360a01b825416179055516002890155511661ffff60038801911661ffff19825416179055516004860155516005850155516006840155516007830155516008820155019160018060a01b039060018060a01b03905116166001600160601b0360a01b835416178255516006811015610c4257610ed79161113e565b865f52600560205260405f20600160ff19825416179055335f52600860205260405f2097885498600160401b8a1015610f945789610f1c91600160209c018155611162565b81549060031b908a821b915f19901b1916179055610f3a33896113ba565b6040519687528887015260408601526060850152608084015260a083015260c0820152600160e0820152817f28837bee20ea425225930f80e6992465a1c4b85e9cab9ad7d2e9f784132247816101003393a3604051908152f35b634e487b7160e01b5f52604160045260245ffd5b634e487b7160e01b5f52601160045260245ffd5b639093306b60e01b5f5260045ffd5b63bda9b36b60e01b5f5260045ffd5b63fac5ca3360e01b5f5260045ffd5b63559ce7e360e01b5f5260045ffd5b50612710851015610d69565b63faacdff760e01b5f5260045ffd5b34610bec575f366003190112610bec5760206040517f4074ecda76a28dd7ef5b48efea2a9c3acf54cfb296f0bba9820a008f852cf8188152f35b34610bec575f366003190112610bec5760205f54604051908152f35b34610bec576040366003190112610bec576110826110e3565b6001546001600160a01b03163303610c25576001600160a01b038116156110b1576110af9060043561133a565b005b63d92e233d60e01b5f5260045ffd5b34610bec575f366003190112610bec576002546001600160a01b03168152602090f35b602435906001600160a01b0382168203610bec57565b600435906001600160a01b0382168203610bec57565b906006821015610c425752565b90601f8019910116810190811067ffffffffffffffff821117610f9457604052565b906006811015610c4257815460ff60a01b191660a09190911b60ff60a01b16179055565b8054821015611177575f5260205f2001905f90565b634e487b7160e01b5f52603260045260245ffd5b6004549091906001600160a01b03163303610c2557815f52600560205260ff60405f20541615610c5657815f526006602052600960405f20019060ff825460a01c16600682101580610c425760048303611267576006821015610c425760038214158061125c575b610c33575b610c42576006811015610c4257818114611256576112538261123d6040947f8e57a2be23e1738ef2e62e23518544bbb8f12cba85d0f47a4154fd56ef2fbcbc9661113e565b6112498451809461110f565b602083019061110f565ba2565b50505050565b5060048214156111f3565b505f6003831480156112ac575b15610c33576006821015610c42576004821415806112a1575b156111f85763283918bd60e01b5f5260045ffd5b50600382141561128d565b50505f60058314611274565b805f52600b60205260405f2060018060a01b0383165f5260205260ff60405f20541615611336575f818152600b602090815260408083206001600160a01b0395909516808452949091528120805460ff19169055339291907ff6391f5c32d9c69d2a47ea670b442974b53935d1edc7fd64eb21e047a839171b9080a4565b5050565b805f52600b60205260405f2060018060a01b0383165f5260205260ff60405f205416611336575f818152600b602090815260408083206001600160a01b0395909516808452949091528120805460ff19166001179055339291907f2f8788117e7eff1d82e926ec794901d17c78024a50270940304540a733656f0d9080a4565b805f52600a60205260405f2060018060a01b0383165f5260205260ff60405f205416611336575f818152600a602090815260408083206001600160a01b03861684528252808320805460ff19166001179055838352600990915290208054600160401b811015610f945761143391600182018155611162565b81546001600160a01b0394851660039290921b82811b95901b19169390931790557f12246ba2398106df92bc0281a1eece14e5b8516c5c3dab76205391650e39fddb5f80a356fea2646970667358221220172ea86f479ada0441380028f35ecd33f62ef9e5c93850aa6795903f974803e864736f6c634300081e0033","linkReferences":{}},"methodIdentifiers":{"MOCK_VERIFIER_ROLE()":"408bcfa2","addParticipantFromSale(uint256,address)":"a98a329d","bpsDenominator()":"f60632a0","configureExternalContracts(address,address,address)":"bb56e395","getParticipants(uint256)":"c1e3bd3e","getPropertiesByOwner(address)":"9fcb2748","grantRole(bytes32,address)":"2f2ff15d","hasRole(bytes32,address)":"91d14854","isParticipantForProperty(uint256,address)":"7178c01b","mockVerifyProperty(uint256)":"e5517fa4","nextPropertyId()":"39500f34","owner()":"8da5cb5b","primaryValueSale()":"560844e9","properties(uint256)":"f7b10808","propertyExists(uint256)":"4a164732","propertyValueTokenFactory()":"c1261453","registerProperty(uint256,uint16,bytes32,bytes32,bytes32)":"40e133cc","revokeRole(bytes32,address)":"d547741f","syncPropertySaleStatus(uint256,uint8)":"6cae2a59","tokenizeProperty(uint256)":"60954dc6","totalValueUnits()":"fc17fc64","transferOwnership(address)":"f2fde38b","usufructPositions(uint256)":"412041f1","usufructRightNft()":"10973bd6"},"id":1}