{"abi":[{"type":"constructor","inputs":[{"name":"registry_","type":"address","internalType":"address"}],"stateMutability":"nonpayable"},{"type":"function","name":"approve","inputs":[{"name":"","type":"address","internalType":"address"},{"name":"","type":"uint256","internalType":"uint256"}],"outputs":[],"stateMutability":"pure"},{"type":"function","name":"balanceOf","inputs":[{"name":"account","type":"address","internalType":"address"}],"outputs":[{"name":"","type":"uint256","internalType":"uint256"}],"stateMutability":"view"},{"type":"function","name":"mintFromRegistry","inputs":[{"name":"to","type":"address","internalType":"address"},{"name":"tokenId","type":"uint256","internalType":"uint256"}],"outputs":[],"stateMutability":"nonpayable"},{"type":"function","name":"name","inputs":[],"outputs":[{"name":"","type":"string","internalType":"string"}],"stateMutability":"view"},{"type":"function","name":"ownerOf","inputs":[{"name":"tokenId","type":"uint256","internalType":"uint256"}],"outputs":[{"name":"","type":"address","internalType":"address"}],"stateMutability":"view"},{"type":"function","name":"registry","inputs":[],"outputs":[{"name":"","type":"address","internalType":"address"}],"stateMutability":"view"},{"type":"function","name":"safeTransferFrom","inputs":[{"name":"","type":"address","internalType":"address"},{"name":"","type":"address","internalType":"address"},{"name":"","type":"uint256","internalType":"uint256"}],"outputs":[],"stateMutability":"pure"},{"type":"function","name":"safeTransferFrom","inputs":[{"name":"","type":"address","internalType":"address"},{"name":"","type":"address","internalType":"address"},{"name":"","type":"uint256","internalType":"uint256"},{"name":"","type":"bytes","internalType":"bytes"}],"outputs":[],"stateMutability":"pure"},{"type":"function","name":"setApprovalForAll","inputs":[{"name":"","type":"address","internalType":"address"},{"name":"","type":"bool","internalType":"bool"}],"outputs":[],"stateMutability":"pure"},{"type":"function","name":"symbol","inputs":[],"outputs":[{"name":"","type":"string","internalType":"string"}],"stateMutability":"view"},{"type":"function","name":"transferFrom","inputs":[{"name":"","type":"address","internalType":"address"},{"name":"","type":"address","internalType":"address"},{"name":"","type":"uint256","internalType":"uint256"}],"outputs":[],"stateMutability":"pure"},{"type":"event","name":"Transfer","inputs":[{"name":"from","type":"address","indexed":true,"internalType":"address"},{"name":"to","type":"address","indexed":true,"internalType":"address"},{"name":"tokenId","type":"uint256","indexed":true,"internalType":"uint256"}],"anonymous":false},{"type":"error","name":"ApprovalsDisabled","inputs":[]},{"type":"error","name":"TokenAlreadyMinted","inputs":[]},{"type":"error","name":"TokenDoesNotExist","inputs":[]},{"type":"error","name":"TransfersDisabled","inputs":[]},{"type":"error","name":"Unauthorized","inputs":[]},{"type":"error","name":"ZeroAddress","inputs":[]}],"bytecode":{"object":"0x60a034608057601f61057538819003918201601f19168301916001600160401b03831184841017608457808492602094604052833981010312608057516001600160a01b038116808203608057156071576080526040516104dc9081610099823960805181818160b101526102cd0152f35b63d92e233d60e01b5f5260045ffd5b5f80fd5b634e487b7160e01b5f52604160045260245ffdfe60806040526004361015610011575f80fd5b5f3560e01c806306fdde03146103b3578063095ea7b31461038a57806323b872dd1461038557806342842e0e146103855780636352211e1461033a57806370a08231146102fc5780637b103999146102b857806395d89b4114610252578063a22cb4651461021e578063b88d4fde146101b05763e3d3524c14610092575f80fd5b346101ac5760403660031901126101ac576100ab610432565b602435907f00000000000000000000000000000000000000000000000000000000000000006001600160a01b0316330361019e576001600160a01b0316801561018f575f828152602081905260409020546001600160a01b031661018157815f525f60205260405f20816bffffffffffffffffffffffff60a01b825416179055805f52600160205260405f208054906001820180921161016d57555f7fddf252ad1be2c89b69c2b068fc378daa952ba7f163c4a11628f55a4df523b3ef8180a4005b634e487b7160e01b5f52601160045260245ffd5b62a5a1f560e01b5f5260045ffd5b63d92e233d60e01b5f5260045ffd5b6282b42960e81b5f5260045ffd5b5f80fd5b346101ac5760803660031901126101ac576101c9610432565b506101d2610448565b5060643567ffffffffffffffff81116101ac57366023820112156101ac57806004013567ffffffffffffffff81116101ac57369101602401116101ac57638574adcf60e01b5f5260045ffd5b346101ac5760403660031901126101ac57610237610432565b50602435801515036101ac57638734687b60e01b5f5260045ffd5b346101ac575f3660031901126101ac57604051604081019080821067ffffffffffffffff8311176102a4576102a09160405260038152622aa9a960e91b602082015260405191829182610408565b0390f35b634e487b7160e01b5f52604160045260245ffd5b346101ac575f3660031901126101ac576040517f00000000000000000000000000000000000000000000000000000000000000006001600160a01b03168152602090f35b346101ac5760203660031901126101ac576001600160a01b0361031d610432565b16801561018f575f526001602052602060405f2054604051908152f35b346101ac5760203660031901126101ac576004355f908152602081905260409020546001600160a01b0316801561037657602090604051908152f35b63677510db60e11b5f5260045ffd5b61045e565b346101ac5760403660031901126101ac576103a3610432565b50638734687b60e01b5f5260045ffd5b346101ac575f3660031901126101ac57604051604081019080821067ffffffffffffffff8311176102a4576102a091604052600e81526d155cdd599c9d58dd08149a59da1d60921b6020820152604051918291825b602060409281835280519182918282860152018484015e5f828201840152601f01601f1916010190565b600435906001600160a01b03821682036101ac57565b602435906001600160a01b03821682036101ac57565b346101ac5760603660031901126101ac576004356001600160a01b03811681036101ac57506024356001600160a01b03811681036101ac5750638574adcf60e01b5f5260045ffdfea26469706673582212206f13e60486c8f4a0a529d67a76483abab1894e8cb92a25f9963803cce430b13864736f6c634300081e0033","linkReferences":{}},"methodIdentifiers":{"approve(address,uint256)":"095ea7b3","balanceOf(address)":"70a08231","mintFromRegistry(address,uint256)":"e3d3524c","name()":"06fdde03","ownerOf(uint256)":"6352211e","registry()":"7b103999","safeTransferFrom(address,address,uint256)":"42842e0e","safeTransferFrom(address,address,uint256,bytes)":"b88d4fde","setApprovalForAll(address,bool)":"a22cb465","symbol()":"95d89b41","transferFrom(address,address,uint256)":"23b872dd"},"id":4}