{"abi":[{"type":"constructor","inputs":[{"name":"registry_","type":"address","internalType":"address"}],"stateMutability":"nonpayable"},{"type":"function","name":"activeEscrowedAmountByProperty","inputs":[{"name":"","type":"uint256","internalType":"uint256"}],"outputs":[{"name":"","type":"uint256","internalType":"uint256"}],"stateMutability":"view"},{"type":"function","name":"activeListingsCountByProperty","inputs":[{"name":"","type":"uint256","internalType":"uint256"}],"outputs":[{"name":"","type":"uint256","internalType":"uint256"}],"stateMutability":"view"},{"type":"function","name":"buyPrimarySaleListing","inputs":[{"name":"listingId","type":"uint256","internalType":"uint256"},{"name":"amount","type":"uint256","internalType":"uint256"}],"outputs":[],"stateMutability":"payable"},{"type":"function","name":"cancelPrimarySaleListing","inputs":[{"name":"listingId","type":"uint256","internalType":"uint256"}],"outputs":[],"stateMutability":"nonpayable"},{"type":"function","name":"createPrimarySaleListing","inputs":[{"name":"propertyId","type":"uint256","internalType":"uint256"},{"name":"amount","type":"uint256","internalType":"uint256"}],"outputs":[{"name":"listingId","type":"uint256","internalType":"uint256"}],"stateMutability":"nonpayable"},{"type":"function","name":"getListingIds","inputs":[],"outputs":[{"name":"","type":"uint256[]","internalType":"uint256[]"}],"stateMutability":"view"},{"type":"function","name":"getListingsByProperty","inputs":[{"name":"propertyId","type":"uint256","internalType":"uint256"}],"outputs":[{"name":"","type":"uint256[]","internalType":"uint256[]"}],"stateMutability":"view"},{"type":"function","name":"listingExists","inputs":[{"name":"","type":"uint256","internalType":"uint256"}],"outputs":[{"name":"","type":"bool","internalType":"bool"}],"stateMutability":"view"},{"type":"function","name":"listings","inputs":[{"name":"","type":"uint256","internalType":"uint256"}],"outputs":[{"name":"listingId","type":"uint256","internalType":"uint256"},{"name":"propertyId","type":"uint256","internalType":"uint256"},{"name":"seller","type":"address","internalType":"address"},{"name":"amount","type":"uint256","internalType":"uint256"},{"name":"priceWei","type":"uint256","internalType":"uint256"},{"name":"status","type":"uint8","internalType":"enum ProtocolTypes.SaleStatus"}],"stateMutability":"view"},{"type":"function","name":"nextListingId","inputs":[],"outputs":[{"name":"","type":"uint256","internalType":"uint256"}],"stateMutability":"view"},{"type":"function","name":"registry","inputs":[],"outputs":[{"name":"","type":"address","internalType":"address"}],"stateMutability":"view"},{"type":"function","name":"totalFreeValueSoldByProperty","inputs":[{"name":"","type":"uint256","internalType":"uint256"}],"outputs":[{"name":"","type":"uint256","internalType":"uint256"}],"stateMutability":"view"},{"type":"event","name":"ListingStatusUpdated","inputs":[{"name":"listingId","type":"uint256","indexed":true,"internalType":"uint256"},{"name":"previousStatus","type":"uint8","indexed":false,"internalType":"enum ProtocolTypes.SaleStatus"},{"name":"newStatus","type":"uint8","indexed":false,"internalType":"enum ProtocolTypes.SaleStatus"}],"anonymous":false},{"type":"event","name":"PrimarySaleCancelled","inputs":[{"name":"listingId","type":"uint256","indexed":true,"internalType":"uint256"},{"name":"propertyId","type":"uint256","indexed":true,"internalType":"uint256"},{"name":"seller","type":"address","indexed":true,"internalType":"address"},{"name":"amount","type":"uint256","indexed":false,"internalType":"uint256"}],"anonymous":false},{"type":"event","name":"PrimarySaleListed","inputs":[{"name":"listingId","type":"uint256","indexed":true,"internalType":"uint256"},{"name":"propertyId","type":"uint256","indexed":true,"internalType":"uint256"},{"name":"seller","type":"address","indexed":true,"internalType":"address"},{"name":"amount","type":"uint256","indexed":false,"internalType":"uint256"},{"name":"priceWei","type":"uint256","indexed":false,"internalType":"uint256"}],"anonymous":false},{"type":"event","name":"PrimarySalePurchased","inputs":[{"name":"listingId","type":"uint256","indexed":true,"internalType":"uint256"},{"name":"propertyId","type":"uint256","indexed":true,"internalType":"uint256"},{"name":"buyer","type":"address","indexed":true,"internalType":"address"},{"name":"seller","type":"address","indexed":false,"internalType":"address"},{"name":"amount","type":"uint256","indexed":false,"internalType":"uint256"},{"name":"priceWei","type":"uint256","indexed":false,"internalType":"uint256"}],"anonymous":false},{"type":"event","name":"SellerPaid","inputs":[{"name":"listingId","type":"uint256","indexed":true,"internalType":"uint256"},{"name":"seller","type":"address","indexed":true,"internalType":"address"},{"name":"amountWei","type":"uint256","indexed":false,"internalType":"uint256"}],"anonymous":false},{"type":"event","name":"TokensEscrowed","inputs":[{"name":"listingId","type":"uint256","indexed":true,"internalType":"uint256"},{"name":"seller","type":"address","indexed":true,"internalType":"address"},{"name":"amount","type":"uint256","indexed":false,"internalType":"uint256"}],"anonymous":false},{"type":"error","name":"EthTransferFailed","inputs":[]},{"type":"error","name":"InsufficientBalance","inputs":[]},{"type":"error","name":"InvalidAmount","inputs":[]},{"type":"error","name":"InvalidPaymentAmount","inputs":[]},{"type":"error","name":"InvalidPropertyStatus","inputs":[]},{"type":"error","name":"ListingNotActive","inputs":[]},{"type":"error","name":"ListingNotFound","inputs":[]},{"type":"error","name":"PriceZero","inputs":[]},{"type":"error","name":"PropertyNotFound","inputs":[]},{"type":"error","name":"Reentrancy","inputs":[]},{"type":"error","name":"SellerCannotBuyOwnListing","inputs":[]},{"type":"error","name":"SellerOnly","inputs":[]},{"type":"error","name":"Unauthorized","inputs":[]},{"type":"error","name":"ZeroAddress","inputs":[]}],"bytecode":{"object":"0x60a03461009857601f61144538819003918201601f19168301916001600160401b0383118484101761009c5780849260209460405283398101031261009857516001600160a01b0381168082036100985760018055156100895760805260405161139490816100b182396080518181816102800152818161082a015281816108d60152610ce30152f35b63d92e233d60e01b5f5260045ffd5b5f80fd5b634e487b7160e01b5f52604160045260245ffdfe6080806040526004361015610012575f80fd5b5f905f3560e01c908163615d64cd14610c545750806368b8644e14610c2a5780637a99a2b5146108595780637b103999146108145780637f95c4a8146107ea57806389e5510e146107c0578063a689fa001461024f578063aaccf1ec14610231578063bc5bec2a14610202578063de74e57b1461018d578063f1947ea6146101295763fdf96065146100a2575f80fd5b3461012657806003193601126101265760405180916020600454928381520191600482527f8a35acfbc15ff81a39ae7d344fd709f28e8600b4aa8c65c6b64bfe7fe36bd19b915b8181106101105761010c8561010081870382611231565b604051918291826111f8565b0390f35b82548452602090930192600192830192016100e9565b80fd5b5034610126576020366003190112610126576004358152600560205260408120604051918260208354918281520192825260208220915b8181106101775761010c8561010081870382611231565b8254845260209093019260019283019201610160565b503461012657602036600319011261012657604060c091600435815260036020522061020081549160018101549060018060a01b0360028201541660038201549060ff600560048501549401541693604051968752602087015260408601526060850152608084015260a08301906111eb565bf35b50346101265760203660031901126101265760ff60406020926004358152600284522054166040519015158152f35b50346101265780600319360112610126576020600154604051908152f35b50346101265761025e366111d5565b909180546107b1576001815560405163250b239960e11b8152600481018490527f00000000000000000000000000000000000000000000000000000000000000006001600160a01b03169290602081602481875afa908115610778578391610792575b501561078357604051631ef6210160e31b8152600481018590529261016084602481845afa9384156107785783849585928691610736575b50600681101561064a576003811415908161072a575b5061071b576001600160a01b0316330361070d5782156106fe576040516370a0823160e01b81523360048201526001600160a01b03919091169490602081602481895afa90811561069f5785916106c8575b5083116106b95761037683620f424092611304565b049081156106aa57600180548082018255808652600260209081526040808820805460ff19169094179093559151630d1af10360e01b81523360048201523060248201526044810186905290969091908290606490829089905af1801561069f57610672575b508584526008602052604084206103f4848254611338565b90558584526006602052604084208054906001820180921161065e575560405160c0810181811067ffffffffffffffff82111761060e57604052858152600560208201918883526040810133815260608201878152608083019187835260a0840195600187528b8b52600360205260408b2094518555516001850155600284019060018060a01b039051166bffffffffffffffffffffffff60a01b825416179055516003830155516004820155019051600481101561064a5760ff80198354169116179055600454600160401b811015610636576001810180600455811015610622577f8a35acfbc15ff81a39ae7d344fd709f28e8600b4aa8c65c6b64bfe7fe36bd19b01859055858452600560205260408420805490600160401b82101561060e57600182018082558210156105fa5785526020852001859055803b156105f657838091604460405180948193636cae2a5960e01b83528b6004840152600460248401525af180156105eb576105d2575b506020946040519183835286830152847ffc5d55a4221aa835196e3d15abdb22e9a47744df4d7f1c07504236150dcc910060403394a4604051908152827f29527b0752a79bff1da9b1fd413399e673ad01dad95732d4eb3cb7c9334a17fb853393a38055604051908152f35b6105dd848092611231565b6105e7575f610566565b8280fd5b6040513d86823e3d90fd5b8380fd5b634e487b7160e01b86526032600452602486fd5b634e487b7160e01b86526041600452602486fd5b634e487b7160e01b85526032600452602485fd5b634e487b7160e01b85526041600452602485fd5b634e487b7160e01b86526021600452602486fd5b634e487b7160e01b86526011600452602486fd5b6106939060203d602011610698575b61068b8183611231565b810190611267565b6103dc565b503d610681565b6040513d87823e3d90fd5b637294708f60e11b8452600484fd5b631e9acf1760e31b8452600484fd5b90506020813d6020116106f6575b816106e360209383611231565b810103126106f257515f610361565b8480fd5b3d91506106d6565b63162908e360e11b8452600484fd5b6282b42960e81b8452600484fd5b63283918bd60e01b8552600485fd5b6004915014155f61030f565b9250505061075d9194506101603d8111610771575b6107558183611231565b810190611293565b9896509b985050505050509095915f6102f9565b503d61074b565b6040513d85823e3d90fd5b63bb20aabf60e01b8252600482fd5b6107ab915060203d6020116106985761068b8183611231565b5f6102c1565b63558a1e0360e11b8152600490fd5b50346101265760203660031901126101265760406020916004358152600883522054604051908152f35b50346101265760203660031901126101265760406020916004358152600783522054604051908152f35b50346101265780600319360112610126576040517f00000000000000000000000000000000000000000000000000000000000000006001600160a01b03168152602090f35b5034610126576020366003190112610126576004358154610c1b5760018255808252600260205260ff60408320541615610c0c57808252600360205260408220600581019160ff835416926004841015610bf85760018403610be9576002830180549093906001600160a01b03163303610bda5760018060a01b037f000000000000000000000000000000000000000000000000000000000000000016600182019182549360405163250b239960e11b8152856004820152602081602481875afa908115610bcf578a91610bb0575b5015610ba15760405194631ef6210160e31b8652600486015261016085602481865afa8015610b965789958a91610b67575b506006811015610b535760048114159081610b47575b50610b3857906003918260ff19825416179055835489526006602052604089205f19815401905501958654835489526008602052604089209081540390558783548082526006602052604082205415155f14610b315760045b843b156105e7576109f394839283604051809881958294636cae2a5960e01b845260048401611345565b03925af1928315610b24578693610b05575b5050926020917f965f0f990ce18e01fe82097aa64709b8e96485f58a32f16bb368d4ec40e7212c6040610a8296610a3e825180926111eb565b600386820152a285548754604051630d1af10360e01b81523060048201526001600160a01b03909216602483015260448201529384919082908a9082906064820190565b03926001600160a01b03165af1908115610afa577ff40ad0e63a7e1d918ef2b5a6bc31f14ea7d95c6d1571603c134591d462374fc392602092610adf575b5054935494546040519081526001600160a01b0390951694a480805580f35b610af590833d85116106985761068b8183611231565b610ac0565b6040513d88823e3d90fd5b8192935090610b1391611231565b610b20578390875f610a05565b8680fd5b50604051903d90823e3d90fd5b60036109c9565b63283918bd60e01b8952600489fd5b6003915014155f610970565b634e487b7160e01b8a52602160045260248afd5b9050610b839195506101603d8111610771576107558183611231565b9d9950975050505050505050945f61095a565b6040513d8b823e3d90fd5b63bb20aabf60e01b8952600489fd5b610bc9915060203d6020116106985761068b8183611231565b5f610928565b6040513d8c823e3d90fd5b635800797f60e11b8652600486fd5b6366cb03e960e01b8552600485fd5b634e487b7160e01b85526021600452602485fd5b630fc87cc760e31b8252600482fd5b63558a1e0360e11b8252600482fd5b50346101265760203660031901126101265760406020916004358152600683522054604051908152f35b9050610c5f366111d5565b915f546111c65760015f55815f52600260205260ff60405f205416156111b757815f52600360205260405f20926005840160ff8154166004811015611106576001036111a857600285019460018060a01b038654163314611199578215801561118c575b61117d5760018101805463250b239960e11b8652600486018190529490927f00000000000000000000000000000000000000000000000000000000000000006001600160a01b03169291602081602481875afa90811561106c575f9161115e575b501561114f57604051631ef6210160e31b8152600481018790529261016084602481845afa92831561106c575f5f945f965f9161111a575b50600681101561110657600481141590816110fa575b506110eb57610d8588620f424092611304565b049788156110dc578834036110cd5760046003830192610da68a855461132b565b84550180548a808211156110c457610dbd9161132b565b905b555f52600860205260405f2087815403905585545f52600760205260405f20610de9888254611338565b90555415928260ff859454169461109e575b50855490815f52600760205260405f2054145f1461107b576005905b823b1561107757604051636cae2a5960e01b8152915f9183918291610e40919060048401611345565b038183865af1801561106c57611053575b50908992918554813b156106f257849160448392604051978893849263a98a329d60e01b845260048401523360248401525af1938415610b24578994611034575b5050610ff5575b5050604051630d1af10360e01b81523060048201523360248201526044810184905290602090829060649082908b906001600160a01b03165af18015610fea57610fcd575b50858080808660018060a01b038a54165af13d15610fc8573d67ffffffffffffffff8111610fb45760405190610f1e601f8201601f191660200183611231565b81528760203d92013e5b15610fa557916020917fc5fe2d52bd91bab41597b46f3570f822197717aa3ba170b9eb35a8ee08bd9d5693549560018060a01b03905416956040519187835284830152826040830152857fed1c8418abeac29af61bca060b315a386f25870e9a59525399b4ce8f4ce7759160603394a4604051908152a380805580f35b630db2c7f160e31b8652600486fd5b634e487b7160e01b88526041600452602488fd5b610f28565b610fe59060203d6020116106985761068b8183611231565b610ede565b6040513d89823e3d90fd5b60407f965f0f990ce18e01fe82097aa64709b8e96485f58a32f16bb368d4ec40e7212c91611025825180926111eb565b60026020820152a2845f610e99565b819294509061104291611231565b61104f578691895f610e92565b8880fd5b6110629193929a505f90611231565b5f9890915f610e51565b6040513d5f823e3d90fd5b5f80fd5b5f818152600660205260409020541561109657600490610e17565b600390610e17565b805460ff1916600217905585545f90815260066020526040812080545f19019055610dfb565b50505f90610dbf565b637e2897ef60e11b5f5260045ffd5b637294708f60e11b5f5260045ffd5b63283918bd60e01b5f5260045ffd5b6003915014155f610d72565b634e487b7160e01b5f52602160045260245ffd5b92955050506111399194506101603d8111610771576107558183611231565b9c99509a9750505050929150509094955f610d5c565b63bb20aabf60e01b5f5260045ffd5b611177915060203d6020116106985761068b8183611231565b5f610d24565b63162908e360e11b5f5260045ffd5b5060038101548311610cc3565b63385590cf60e01b5f5260045ffd5b6366cb03e960e01b5f5260045ffd5b630fc87cc760e31b5f5260045ffd5b63558a1e0360e11b5f5260045ffd5b6040906003190112611077576004359060243590565b9060048210156111065752565b60206040818301928281528451809452019201905f5b81811061121b5750505090565b825184526020938401939092019160010161120e565b90601f8019910116810190811067ffffffffffffffff82111761125357604052565b634e487b7160e01b5f52604160045260245ffd5b90816020910312611077575180151581036110775790565b51906001600160a01b038216820361107757565b9081610160910312611077578051916112ae6020830161127f565b91604081015191606082015161ffff81168103611077579160808101519160a08201519160c08101519160e082015191610100810151916101406112f5610120840161127f565b92015160068110156110775790565b8181029291811591840414171561131757565b634e487b7160e01b5f52601160045260245ffd5b9190820391821161131757565b9190820180921161131757565b908152604081019291906006821015611106576020015256fea2646970667358221220218c66c66ac160fc8390fa7a9bcf60db58c36a2ed43462e6a653c69c2765507064736f6c634300081e0033","linkReferences":{}},"methodIdentifiers":{"activeEscrowedAmountByProperty(uint256)":"89e5510e","activeListingsCountByProperty(uint256)":"68b8644e","buyPrimarySaleListing(uint256,uint256)":"615d64cd","cancelPrimarySaleListing(uint256)":"7a99a2b5","createPrimarySaleListing(uint256,uint256)":"a689fa00","getListingIds()":"fdf96065","getListingsByProperty(uint256)":"f1947ea6","listingExists(uint256)":"bc5bec2a","listings(uint256)":"de74e57b","nextListingId()":"aaccf1ec","registry()":"7b103999","totalFreeValueSoldByProperty(uint256)":"7f95c4a8"},"id":0}